:10000000A2EF01F080EF01F0046ED8CF05F0E0CF51
:1000100006F00001E9CF0CF0EACF07F0E1CF08F0DD
:10002000E2CF09F0D9CF0AF0DACF0BF0F3CF12F01C
:10003000F4CF13F0FACF14F000C00EF001C00FF0AF
:1000400002C010F003C011F09DA62AEF00F09EB68A
:10005000F1EF00F00EC000F00FC001F010C002F090
:1000600011C003F00CC0E9FF07C0EAFF078E08C00B
:10007000E1FF09C0E2FF0AC0D9FF0BC0DAFF12C0DE
:10008000F3FF13C0F4FF14C0FAFF045006C0E0FFF2
:1000900005C0D8FF1000140E246E24C001F00AEF32
:1000A00001F0C9502BC0C9FFC6889E96C7B0FED7C5
:1000B000016AC6B8012A1200EA6A360EE96EEF50EC
:1000C0000DE0060E016E006A002EFED7012EFBD752
:1000D0007B0E006E002EFED7EF2EF3D712002A6A99
:1000E00025502A1A26502A1A27502A1A28502A1A26
:1000F00029502A1A25C02BF0D4DF0A0E366EDCDF19
:1001000026C02BF0CEDF0A0E366ED6DF27C02BF0CE
:10011000C8DF0A0E366ED0DF28C02BF0C2DF0A0E11
:10012000366ECADF29C02BF0BCDF0A0E366EC4DF84
:100130002AC02BF0B6DF12000E0E246E24C001F090
:1001400016EF01F0C69C9EA6FED7C950C6880A0EBF
:10015000366EB2DFC69C9EA6FED7C950C6882A6EF0
:100160000A0E366EA9DFC69C9EA6FED7C950C68869
:100170002B6E0A0E366EA0DFC69C9EA6FED7C95017
:10018000C6882C6E0A0E366E97DFC69C9EA6FED7DA
:10019000C950C6882D6E0A0E366E8EDFC69C9EA68E
:1001A000FED7C950C6882E6E0A0E366E85DFC69CF5
:1001B0009EA6FED7C950C6882F6E0A0E366E7CDF0B
:1001C0002AC030F02BC031F02CC032F02DC033F0FB
:1001D0002EC034F02FC035F0300E016E026A4EEFA3
:1001E00001F0C7BA03D0196AC7B4198E1950192A79
:1001F0001C6E1C507F084EE21650210834E1185046
:10020000270A07E0010A11E0160A1BE0180A21E09C
:1002100027D041D701C024F0060E256E24C026F059
:10022000276A286A296A5BDF1BD086D701C024F0C1
:10023000050E256E24C026F0276A286A296A4FDF3A
:100240000FD0030E256E266A276A286A296A47DFBF
:1002500007D0030E256E266A276A286A296A3FDFBF
:10026000250E186E16D01650200813E1172C0AD050
:10027000030E256E266A276A286A296A30DF210E56
:10028000166E07D0040E256E266A276A286A296A28
:1002900026DF3ED01C507F083BE354D702C003F05A
:1002A00001C0E1FF02C0E2FFEA6A1D0EE96E060E20
:1002B000016EE6CFEEFF012EFCD71650210821E19A
:1002C0001D50060A09E0030A0AE0070A0BE0030AC8
:1002D0000DE0120A0EE014D0270E186E11D0260E73
:1002E000186E0ED0200E166E176A0AD0300E186ED9
:1002F00007D0280E186E1EC023F023C024F082D62B
:1003000007D01650200804E11D2C02D0010E176EF4
:100310009E962AEF00F068656C6C6F200A0D000055
:100320000900F5520DE0F6CF1AF0F7CF1BF0F550AB
:100330009EA8FED7AD6E1AC0F6FF1BC0F7FFF0D720
:10034000CAEF01F0F86AD09E078EB886080EAF6E2D
:10035000020EB06EA60EAC6E900EAB6E94869488B4
:10036000150EC86E360EC66EC580200E166E176A44
:10037000250E186E030E196EC150C00B0F09C16E09
:10038000070EB46E9D86C00EF212160EF66E030EA8
:08039000F76EC6D7FFD703008A
:020000040030CA
:0E00000000C21801008781000FC00FE00F4002
:00000001FF
;PIC18F4620
;CRC=3DE4  CREATED="26-Mar-14 11:17"
