:1000000080EF01F020EF01F0046ED8CF05F0E0CFD3
:1000100006F00001E9CF0CF0EACF07F0E1CF08F0DD
:10002000E2CF09F0D9CF0AF0DACF0BF0F3CF12F01C
:10003000F4CF13F0FACF14F000C00EF001C00FF0AF
:1000400002C010F003C011F09DA62AEF00F09EB68A
:10005000ACEF00F00EC000F00FC001F010C002F0D5
:1000600011C003F00CC0E9FF07C0EAFF078E08C00B
:10007000E1FF09C0E2FF0AC0D9FF0BC0DAFF12C0DE
:10008000F3FF13C0F4FF14C0FAFF045006C0E0FFF2
:1000900005C0D8FF100050726F6772616D207374D5
:1000A000617465206973202575200A0D0000637551
:1000B0007272656E74207374617465206973202593
:1000C00075200A0D000068616E647368616B6520BD
:1000D0007374617465206973202575200A0D000012
:1000E0000900F5520EE0F6CF22F0F7CF23F0F550DD
:1000F00004009EA8FDD7AD6E22C0F6FF23C0F7FF17
:10010000EFD71200140E226E22C001F0C6EF00F0ED
:10011000C95023C0C9FFC6889E96C7B0FED7016AE2
:10012000C6B8012A12000E0E226E22C001F0CDEFD9
:1001300000F0EA6A220EE96EEF500DE0060E016E45
:10014000006A002EFED7012EFBD77B0E006E002E1C
:10015000FED7EF2EF3D712009C0EF66E020EF76E4E
:10016000BFDFC7BA03D01B6AC7B41B8E1B501B2A44
:100170001E6E1E507F0828E2172C1FD0060E195C39
:10018000FB0F18E2050F3CEF01F0BCD701C022F0D5
:1001900022C023F0BDDF0ED0C6D701C022F022C09E
:1001A00023F0B6DF07D0610E236EB2DF03D0610EFD
:1001B000236EAEDF050E196E06D0175204E1182C1F
:1001C00002D0010E176E55D01E507F0852E3320E3A
:1001D000226EAFDF172C35D0C69C9EA6FED7C95025
:1001E000C688320E226EA5DFC69C9EA6FED7C950D9
:1001F000C6881F6E1F504C0A09E00A0A0AE0220A4C
:100200000BE00C0A0CE0380A0DE01AD0070E196E4C
:1002100017D0060E196E14D0176A186A11D00A0E7C
:10022000196E0ED0080E196E320E226E82DFC69C39
:100230009EA6FED7C950C688206E20C022F0E2D606
:1002400018D0175216E1320E226E73DFC69C9EA69E
:10025000FED7C950C688320E226E6BDFC69C9EA6A2
:10026000FED7C950C688216E2150680802E1010EF0
:10027000186E9E962AEF00F0E824F76AF736930F7F
:10028000F66E020EF7220A00F550FA6E0800F550DD
:10029000F96E98018A01AE01B401A6012A2A2A2A20
:1002A0002A2A2A2A2A2A2A2A2A2A4E657720496EA9
:1002B0007475727270742A2A2A2A2A2A2A2A2A2AE9
:1002C0002A2A2A2A0A0D00002A2A2A2A2A2A2A2A1F
:1002D0002A2A2A2A2A2A2A5374617274206F6620D5
:1002E0007468652050726F6772616D2A2A2A2A2A03
:1002F0002A2A2A2A2A2A2A2A2A2A2A2A0A0D0000EF
:10030000F86AD09E078EB886080EAF6E020EB06EE9
:10031000A60EAC6E900EAB6E94869488150EC86EC9
:10032000360EC66EC580176A186A050E196E030E62
:100330001B6EC150C00B0F09C16E070EB46E9D86B7
:10034000C00EF21294928B920C0EBA6EC80EF66E1C
:10035000020EF76E166AF2BE168EF29EC1DE16BE51
:06036000F28EFFD703003E
:020000040030CA
:0E00000000C21801008781000FC00FE00F4002
:00000001FF
;PIC18F4620
;CRC=BFAB  CREATED="24-Mar-14 22:21"
